{
    "abi": [
        {
            "type": "fallback",
            "stateMutability": "payable"
        },
        {
            "type": "receive",
            "stateMutability": "payable"
        },
        {
            "type": "function",
            "name": "DOMAIN_SEPARATOR",
            "inputs": [],
            "outputs": [
                {
                    "name": "",
                    "type": "bytes32",
                    "internalType": "bytes32"
                }
            ],
            "stateMutability": "view"
        },
        {
            "type": "function",
            "name": "chgPasswdAddr",
            "inputs": [
                {
                    "name": "_newPasswdAddr",
                    "type": "address",
                    "internalType": "address"
                },
                {
                    "name": "_newQuestionNos",
                    "type": "string",
                    "internalType": "string"
                },
                {
                    "name": "estimatedFee",
                    "type": "uint256",
                    "internalType": "uint256"
                },
                {
                    "name": "_passwdAddr",
                    "type": "address",
                    "internalType": "address"
                },
                {
                    "name": "_signature",
                    "type": "bytes",
                    "internalType": "bytes"
                }
            ],
            "outputs": [],
            "stateMutability": "nonpayable"
        },
        {
            "type": "function",
            "name": "eip712Domain",
            "inputs": [],
            "outputs": [
                {
                    "name": "fields",
                    "type": "bytes1",
                    "internalType": "bytes1"
                },
                {
                    "name": "name",
                    "type": "string",
                    "internalType": "string"
                },
                {
                    "name": "version",
                    "type": "string",
                    "internalType": "string"
                },
                {
                    "name": "chainId",
                    "type": "uint256",
                    "internalType": "uint256"
                },
                {
                    "name": "verifyingContract",
                    "type": "address",
                    "internalType": "address"
                },
                {
                    "name": "salt",
                    "type": "bytes32",
                    "internalType": "bytes32"
                },
                {
                    "name": "extensions",
                    "type": "uint256[]",
                    "internalType": "uint256[]"
                }
            ],
            "stateMutability": "view"
        },
        {
            "type": "function",
            "name": "gasFreeAmount",
            "inputs": [],
            "outputs": [
                {
                    "name": "",
                    "type": "uint256",
                    "internalType": "uint256"
                }
            ],
            "stateMutability": "view"
        },
        {
            "type": "function",
            "name": "increaseGasFreeAmount",
            "inputs": [
                {
                    "name": "_amount",
                    "type": "uint256",
                    "internalType": "uint256"
                }
            ],
            "outputs": [],
            "stateMutability": "nonpayable"
        },
        {
            "type": "function",
            "name": "initByFactory",
            "inputs": [
                {
                    "name": "_entryEOA",
                    "type": "address",
                    "internalType": "address"
                },
                {
                    "name": "_bigBrotherAccount",
                    "type": "address",
                    "internalType": "address"
                },
                {
                    "name": "_passwdAddr",
                    "type": "address",
                    "internalType": "address"
                },
                {
                    "name": "_questionNos",
                    "type": "string",
                    "internalType": "string"
                },
                {
                    "name": "_gasFreeAmount",
                    "type": "uint256",
                    "internalType": "uint256"
                }
            ],
            "outputs": [],
            "stateMutability": "nonpayable"
        },
        {
            "type": "function",
            "name": "initImpl",
            "inputs": [
                {
                    "name": "_impl",
                    "type": "address",
                    "internalType": "address"
                }
            ],
            "outputs": [],
            "stateMutability": "nonpayable"
        },
        {
            "type": "function",
            "name": "isValidSignature",
            "inputs": [
                {
                    "name": "_hash",
                    "type": "bytes32",
                    "internalType": "bytes32"
                },
                {
                    "name": "_signature",
                    "type": "bytes",
                    "internalType": "bytes"
                }
            ],
            "outputs": [
                {
                    "name": "",
                    "type": "bytes4",
                    "internalType": "bytes4"
                }
            ],
            "stateMutability": "view"
        },
        {
            "type": "function",
            "name": "nonce",
            "inputs": [],
            "outputs": [
                {
                    "name": "",
                    "type": "uint256",
                    "internalType": "uint256"
                }
            ],
            "stateMutability": "view"
        },
        {
            "type": "function",
            "name": "passwdAddr",
            "inputs": [],
            "outputs": [
                {
                    "name": "",
                    "type": "address",
                    "internalType": "address"
                }
            ],
            "stateMutability": "view"
        },
        {
            "type": "function",
            "name": "questionNos",
            "inputs": [],
            "outputs": [
                {
                    "name": "",
                    "type": "string",
                    "internalType": "string"
                }
            ],
            "stateMutability": "view"
        },
        {
            "type": "function",
            "name": "sendMultiTransaction",
            "inputs": [
                {
                    "name": "toArr",
                    "type": "address[]",
                    "internalType": "address[]"
                },
                {
                    "name": "amountArr",
                    "type": "uint256[]",
                    "internalType": "uint256[]"
                },
                {
                    "name": "dataArr",
                    "type": "bytes[]",
                    "internalType": "bytes[]"
                },
                {
                    "name": "estimatedFee",
                    "type": "uint256",
                    "internalType": "uint256"
                },
                {
                    "name": "_passwdAddr",
                    "type": "address",
                    "internalType": "address"
                },
                {
                    "name": "_signature",
                    "type": "bytes",
                    "internalType": "bytes"
                }
            ],
            "outputs": [
                {
                    "name": "results",
                    "type": "bytes[]",
                    "internalType": "bytes[]"
                }
            ],
            "stateMutability": "payable"
        },
        {
            "type": "function",
            "name": "sendTransaction",
            "inputs": [
                {
                    "name": "to",
                    "type": "address",
                    "internalType": "address"
                },
                {
                    "name": "amount",
                    "type": "uint256",
                    "internalType": "uint256"
                },
                {
                    "name": "data",
                    "type": "bytes",
                    "internalType": "bytes"
                },
                {
                    "name": "estimatedFee",
                    "type": "uint256",
                    "internalType": "uint256"
                },
                {
                    "name": "_passwdAddr",
                    "type": "address",
                    "internalType": "address"
                },
                {
                    "name": "_signature",
                    "type": "bytes",
                    "internalType": "bytes"
                }
            ],
            "outputs": [
                {
                    "name": "rtnData",
                    "type": "bytes",
                    "internalType": "bytes"
                }
            ],
            "stateMutability": "payable"
        },
        {
            "type": "function",
            "name": "standbyVariables",
            "inputs": [
                {
                    "name": "",
                    "type": "uint256",
                    "internalType": "uint256"
                }
            ],
            "outputs": [
                {
                    "name": "",
                    "type": "bytes32",
                    "internalType": "bytes32"
                }
            ],
            "stateMutability": "view"
        },
        {
            "type": "function",
            "name": "upImplAfterSend",
            "inputs": [
                {
                    "name": "to",
                    "type": "address",
                    "internalType": "address"
                },
                {
                    "name": "amount",
                    "type": "uint256",
                    "internalType": "uint256"
                },
                {
                    "name": "data",
                    "type": "bytes",
                    "internalType": "bytes"
                },
                {
                    "name": "estimatedFee",
                    "type": "uint256",
                    "internalType": "uint256"
                },
                {
                    "name": "_passwdAddr",
                    "type": "address",
                    "internalType": "address"
                },
                {
                    "name": "_signature",
                    "type": "bytes",
                    "internalType": "bytes"
                }
            ],
            "outputs": [
                {
                    "name": "rtnData",
                    "type": "bytes",
                    "internalType": "bytes"
                }
            ],
            "stateMutability": "payable"
        },
        {
            "type": "function",
            "name": "upgradeImpl",
            "inputs": [
                {
                    "name": "estimatedFee",
                    "type": "uint256",
                    "internalType": "uint256"
                },
                {
                    "name": "_passwdAddr",
                    "type": "address",
                    "internalType": "address"
                },
                {
                    "name": "_signature",
                    "type": "bytes",
                    "internalType": "bytes"
                }
            ],
            "outputs": [],
            "stateMutability": "nonpayable"
        },
        {
            "type": "function",
            "name": "w3eaPointAmount",
            "inputs": [],
            "outputs": [
                {
                    "name": "",
                    "type": "uint256",
                    "internalType": "uint256"
                }
            ],
            "stateMutability": "view"
        },
        {
            "type": "event",
            "name": "ChgEntry",
            "inputs": [
                {
                    "name": "newEntry",
                    "type": "address",
                    "indexed": false,
                    "internalType": "address"
                }
            ],
            "anonymous": false
        },
        {
            "type": "event",
            "name": "ChgPasswdAddr",
            "inputs": [
                {
                    "name": "oldPasswdAddr",
                    "type": "address",
                    "indexed": false,
                    "internalType": "address"
                },
                {
                    "name": "newPasswdAddr",
                    "type": "address",
                    "indexed": false,
                    "internalType": "address"
                }
            ],
            "anonymous": false
        },
        {
            "type": "event",
            "name": "EIP712DomainChanged",
            "inputs": [],
            "anonymous": false
        },
        {
            "type": "event",
            "name": "InitAccount",
            "inputs": [
                {
                    "name": "passwdAddr",
                    "type": "address",
                    "indexed": false,
                    "internalType": "address"
                },
                {
                    "name": "factory",
                    "type": "address",
                    "indexed": false,
                    "internalType": "address"
                }
            ],
            "anonymous": false
        },
        {
            "type": "event",
            "name": "SendTransaction",
            "inputs": [
                {
                    "name": "to",
                    "type": "address",
                    "indexed": false,
                    "internalType": "address"
                },
                {
                    "name": "data",
                    "type": "bytes",
                    "indexed": false,
                    "internalType": "bytes"
                },
                {
                    "name": "value",
                    "type": "uint256",
                    "indexed": false,
                    "internalType": "uint256"
                }
            ],
            "anonymous": false
        },
        {
            "type": "event",
            "name": "SyncEntryEOA",
            "inputs": [
                {
                    "name": "newEntryEOA",
                    "type": "address",
                    "indexed": false,
                    "internalType": "address"
                }
            ],
            "anonymous": false
        },
        {
            "type": "event",
            "name": "UpgradeImpl",
            "inputs": [
                {
                    "name": "oldImpl",
                    "type": "address",
                    "indexed": false,
                    "internalType": "address"
                },
                {
                    "name": "newImpl",
                    "type": "address",
                    "indexed": false,
                    "internalType": "address"
                }
            ],
            "anonymous": false
        },
        {
            "type": "error",
            "name": "ECDSAInvalidSignature",
            "inputs": []
        },
        {
            "type": "error",
            "name": "ECDSAInvalidSignatureLength",
            "inputs": [
                {
                    "name": "length",
                    "type": "uint256",
                    "internalType": "uint256"
                }
            ]
        },
        {
            "type": "error",
            "name": "ECDSAInvalidSignatureS",
            "inputs": [
                {
                    "name": "s",
                    "type": "bytes32",
                    "internalType": "bytes32"
                }
            ]
        },
        {
            "type": "error",
            "name": "FunctionError",
            "inputs": []
        },
        {
            "type": "error",
            "name": "InvalidShortString",
            "inputs": []
        },
        {
            "type": "error",
            "name": "StringTooLong",
            "inputs": [
                {
                    "name": "str",
                    "type": "string",
                    "internalType": "string"
                }
            ]
        }
    ],
    "bytecode": {
        "object": "0x61016080604052346200015f57620000178162000164565b6007815260208101661058d8dbdd5b9d60ca1b8152604051916200003b8362000164565b6001835260208301603160f81b8152620000558262000180565b92610120938452620000678562000353565b92610140938452519020938460e05251902091610100938385524660a0526040519360208501917f8b73c3c69bb8fe3d512ecc4cf759cc79239f7b179b0ffacaa9a75d522b39400f8352604086015260608501524660808501523060a085015260a0845260c084019380851060018060401b03861117620001495760408590525190206080523060c052600880546001600160a01b031916331790556127e69384620005018539608051846118b5015260a05184611970015260c0518461187f015260e051846119040152518361192a01525182610792015251816107bb0152f35b634e487b7160e01b600052604160045260246000fd5b600080fd5b604081019081106001600160401b038211176200014957604052565b805160209190828110156200021f575090601f825111620001be5780825192015190808310620001af57501790565b82600019910360031b1b161790565b90604051809263305a27a960e01b82528060048301528251908160248401526000935b82851062000205575050604492506000838284010152601f80199101168101030190fd5b8481018201518686016044015293810193859350620001e1565b6001600160401b03811162000149576000928354926001938481811c9116801562000348575b838210146200033457601f8111620002fe575b5081601f841160011462000297575092829391839286946200028b575b50501b916000199060031b1c191617905560ff90565b01519250388062000275565b919083601f1981168780528488209488905b88838310620002e35750505010620002c9575b505050811b01905560ff90565b015160001960f88460031b161c19169055388080620002bc565b858701518855909601959485019487935090810190620002a9565b85805284601f848820920160051c820191601f860160051c015b8281106200032857505062000258565b87815501859062000318565b634e487b7160e01b86526022600452602486fd5b90607f169062000245565b805160209081811015620003e15750601f825111620003805780825192015190808310620001af57501790565b90604051809263305a27a960e01b82528060048301528251908160248401526000935b828510620003c7575050604492506000838284010152601f80199101168101030190fd5b8481018201518686016044015293810193859350620003a3565b9192916001600160401b038111620001495760019182548381811c91168015620004f5575b82821014620004df57601f8111620004a6575b5080601f8311600114620004595750819293946000926200044d575b5050600019600383901b1c191690821b17905560ff90565b01519050388062000435565b90601f198316958460005282600020926000905b8882106200048e5750508385969710620002c957505050811b01905560ff90565b8087859682949686015181550195019301906200046d565b8360005283601f83600020920160051c820191601f850160051c015b828110620004d257505062000419565b60008155018490620004c2565b634e487b7160e01b600052602260045260246000fd5b90607f16906200040656fe60806040526004361015610015575b3661277e57005b60003560e01c806311fc372d146101255780631626ba7e1461012057806328885a801461011b5780633195b8df146101165780633644e515146101115780634b28eac61461010c5780638305cc431461010757806384b0196e14610102578063952b5c93146100fd578063affed0e0146100f8578063b5b0f1c7146100f3578063b62e9b26146100ee578063bf509515146100e9578063c9f86a7b146100e4578063df646ff9146100df578063eccb0f9f146100da5763f7677ec20361000e576111e3565b6111c5565b61108e565b610e03565b610b24565b610a70565b6109b0565b610992565b6108ac565b610777565b6106d3565b61032d565b6102ea565b6102be565b610295565b610245565b34610143576000366003190112610143576020600954604051908152f35b600080fd5b634e487b7160e01b600052604160045260246000fd5b602081019081106001600160401b0382111761017957604052565b610148565b604081019081106001600160401b0382111761017957604052565b60c081019081106001600160401b0382111761017957604052565b90601f801991011681019081106001600160401b0382111761017957604052565b6001600160401b03811161017957601f01601f191660200190565b9291926101fc826101d5565b9161020a60405193846101b4565b829481845281830111610143578281602093846000960137010152565b9080601f8301121561014357816020610242933591016101f0565b90565b34610143576040366003190112610143576024356001600160401b0381116101435761028261027a6020923690600401610227565b6004356115d8565b6040516001600160e01b03199091168152f35b34610143576000366003190112610143576004546040516001600160a01b039091168152602090f35b3461014357602036600319011261014357600435600052600b6020526020604060002054604051908152f35b3461014357600036600319011261014357602061030561187c565b604051908152f35b6001600160a01b0381160361014357565b6084359061032b8261030d565b565b346101435760603660031901126101435760243560043561034d8261030d565b6044356001600160401b0381116101435761036c903690600401610227565b91604051926020918285018561038e8683919060206040840193600181520152565b03956103a2601f19978881018352826101b4565b5190206003546001600160a01b039690600090881686816105ba5750506004546001600160a01b03169050945b6007546103ec906001600160a01b03165b6001600160a01b031690565b3314158061059c575b610466575b93610448889461045c999461044061044d956104579a996104346104246006546001810160065590565b9460405195869384019788611b1d565b039081018352826101b4565b519020611856565b6116d3565b9216911614611b61565b611dad565b610464611ba1565b005b9091969294936004826104896103e06103e06103e060085460018060a01b031690565b6040516317b617eb60e11b815292839182905afa9687156105975761045c99610440879661044d966104e26104579c6104489760009161056a575b5060018060a01b03166001600160601b0360a01b6007541617600755565b60075460008051602061279183398151915290610532906001600160a01b03165b8b811633148015610547575b61051890611ae4565b6040516001600160a01b0390911681529081906020820190565b0390a195999a509550509450949850506103fa565b5060085461051890610561906001600160a01b03166103e0565b3314905061050f565b61058a9150833d8511610590575b61058281836101b4565b8101906115b7565b386104c4565b503d610578565b6115cc565b506008546105b2906001600160a01b03166103e0565b3314156103f5565b604051625110b560e71b815291829060049082905afa91821561059757916105e4575b50946103cf565b6105fb9150863d88116105905761058281836101b4565b386105dd565b9181601f84011215610143578235916001600160401b038311610143576020808501948460051b01011161014357565b919082519283825260005b84811061065d575050826000602080949584010152601f8019910116010190565b60208183018101518483018201520161063c565b602080820190808352835180925260408301928160408460051b8301019501936000915b8483106106a55750505050505090565b90919293949584806106c3600193603f198682030187528a51610631565b9801930193019194939290610695565b60c0366003190112610143576001600160401b03600435818111610143576106ff903690600401610601565b6024929192358281116101435761071a903690600401610601565b909360443584811161014357610734903690600401610601565b9061073d61031e565b9360a435968711610143576107739761075d610767983690600401610227565b9660643595612357565b60405191829182610671565b0390f35b346101435760008060031936011261086f57610821906107b67f0000000000000000000000000000000000000000000000000000000000000000611408565b6107df7f00000000000000000000000000000000000000000000000000000000000000006114ff565b91604051916107ed8361015e565b818352604051948594600f60f81b865261081360209360e08589015260e0880190610631565b908682036040880152610631565b904660608601523060808601528260a086015284820360c08601528080855193848152019401925b82811061085857505050500390f35b835185528695509381019392810192600101610849565b80fd5b90600182811c921680156108a2575b602083101461088c57565b634e487b7160e01b600052602260045260246000fd5b91607f1691610881565b346101435760008060031936011261086f5760405190806005546108cf81610872565b80855291600191808316908115610968575060011461090d575b610773856108f9818703826101b4565b604051918291602083526020830190610631565b9250600583527f036b6384b5eca791c62761152d0c79bb0604c104a5fb6f4eb0703f3154bb3db05b8284106109505750505081016020016108f9826107736108e9565b80546020858701810191909152909301928101610935565b869550610773969350602092506108f994915060ff191682840152151560051b82010192936108e9565b34610143576000366003190112610143576020600654604051908152f35b34610143576020366003190112610143576004356109cd8161030d565b600254906001600160a01b0390818316610a39576001600160a01b03199092169082161760025560408051600081526001600160a01b0390921660208301527f2bb785f547c0cd9dd6e7647d00bfdc6e64884010271c104334389d3b62c55d209190819081015b0390a1005b60405162461bcd60e51b815260206004820152600f60248201526e63616c6c206279206d697374616b6560881b6044820152606490fd5b3461014357602036600319011261014357600854336001600160a01b0391821614908115610ae9575b5015610ab557610464610ab0600435600a54611da0565b600a55565b60405162461bcd60e51b815260206004820152600c60248201526b6f6e6c7920666163746f727960a01b6044820152606490fd5b905060075416331438610a99565b9181601f84011215610143578235916001600160401b038311610143576020838186019501011161014357565b346101435760a03660031901126101435760048035610b428161030d565b6001600160401b039160243583811161014357610b629036908301610af7565b9290916044359060643595610b768761030d565b60843590811161014357610b8d9036908301610227565b610b983687876101f0565b9081516020809301206040519081610bd587868301938a8560609194939260808201956002835260018060a01b0316602083015260408201520152565b0391610be9601f19938481018352826101b4565b5190206003546001600160a01b03949192919060009087908390881680610d46575050546001600160a01b03169050955b600754610c2f906001600160a01b03166103e0565b33141580610d28575b610c71575b50610c6c9695936104486104649c8795610440610457999661044d966104346104246006546001810160065590565b611e85565b949296959381610c916103e06103e06103e060085460018060a01b031690565b6040516317b617eb60e11b815297889182905afa958615610597576104649c610c6c99610440879661044d96610ced6104579c6104489760009161056a575060018060a01b03166001600160601b0360a01b6007541617600755565b60075460008051602061279183398151915290610d12906001600160a01b0316610503565b0390a196509650509597509c5050939596610c3d565b50600854610d3e906001600160a01b03166103e0565b331415610c38565b604051625110b560e71b815292839182905afa9182156105975791610d6d575b5095610c1a565b610d849150823d84116105905761058281836101b4565b38610d66565b9060c060031983011261014357600435610da38161030d565b91602435916001600160401b036044358181116101435783610dc791600401610af7565b9390939260643592608435610ddb8161030d565b9260a4359182116101435761024291600401610227565b906020610242928181520190610631565b610e0c36610d8a565b949160409691969493949586519060209889830183610e2f868b8b8b8b876120c9565b0393610e43601f19958681018352826101b4565b5190206003546001600160a01b039b919491906000908c9083908f168061104a5750506004546001600160a01b03169150610e7b9050565b945b600754610e92906001600160a01b03166103e0565b3314158061102c575b610ef5575b9b61044d610eea9b9a999897956104486107739f968f610440610ee59b9887986104346104579c610ed76006546001810160065590565b955195869384019788611b1d565b612147565b905191829182610df2565b9b9060049592939a9998979694818d610f1e6103e06103e06103e060085460018060a01b031690565b90516317b617eb60e11b815298899182905afa908115610597576104486107739f9d8f610eea9f61045799889761043461044093610ee59f61044d9a610f8391600091611015575060018060a01b03166001600160601b0360a01b6007541617600755565b60075460008051602061279183398151915290610fd2906001600160a01b03165b8d811633148015610ff2575b610fb990611ae4565b88516001600160a01b0390911681529081906020820190565b0390a1995050989c50989b99505050969f5050959798999a9b5050610ea0565b50600854610fb99061100c906001600160a01b03166103e0565b33149050610fb0565b61058a9150853d87116105905761058281836101b4565b50600854611042906001600160a01b03166103e0565b331415610e9b565b6004925192838092625110b560e71b82525afa9182156105975791611071575b5094610e7d565b6110889150823d84116105905761058281836101b4565b3861106a565b346101435760a0366003190112610143576004356110ab8161030d565b602435906110b88261030d565b6044356110c48161030d565b6064356001600160401b038111610143576110e3903690600401610af7565b600854936001600160a01b039290838616156110fb57005b7fd15cf8df5e2d60ca581fa0aad07778c6cfbec8b2a1da625e52427b13b25dd12296610a349661118995611164936001600160601b0360a01b9283339116176008551690600754161760075560018060a01b03166001600160601b0360a01b6003541617600355565b600480546001600160a01b0319166001600160a01b038616179055611a07565b611a07565b611194608435600a55565b6111a5678ac7230489e80001600955565b604080516001600160a01b03909216825233602083015290918291820190565b34610143576000366003190112610143576020600a54604051908152f35b6111ec36610d8a565b94916040969196949394958651906020988983018361120f868b8b8b8b87611f61565b0393611223601f19958681018352826101b4565b5190206003546001600160a01b039b919491906000908c9083908f16806113ad5750506004546001600160a01b0316915061125b9050565b945b600754611272906001600160a01b03166103e0565b3314158061138f575b6112bc575b9b61044d610eea9b9a999897956104486107739f968f6104406112b79b9887986104346104579c610ed76006546001810160065590565b61200e565b9b9060049592939a9998979694818d6112e56103e06103e06103e060085460018060a01b031690565b90516317b617eb60e11b815298899182905afa908115610597576104486107739f9d8f610eea9f610457998897610434610440936112b79f61044d9a61134a91600091611015575060018060a01b03166001600160601b0360a01b6007541617600755565b6007546000805160206127918339815191529061136f906001600160a01b0316610fa4565b0390a1995050989c50989b99505050969f5050959798999a9b5050611280565b506008546113a5906001600160a01b03166103e0565b33141561127b565b6004925192838092625110b560e71b82525afa91821561059757916113d4575b509461125d565b6113eb9150823d84116105905761058281836101b4565b386113cd565b6001600160401b0381116101795760051b60200190565b60ff81146114465760ff811690601f8211611434576040519161142a8361017e565b8252602082015290565b604051632cd44ac360e21b8152600490fd5b5060405160008181549161145983610872565b808352926001908181169081156114dd5750600114611480575b50610242925003826101b4565b600080805291507f290decd9548b62a8d60345a988386fc84ba6bc95484008f6362f93160ef3e5635b8483106114c25750610242935050810160200138611473565b819350908160209254838589010152019101909184926114a9565b90506020925061024294915060ff191682840152151560051b82010138611473565b60ff81146115215760ff811690601f8211611434576040519161142a8361017e565b5060405160008160019182549261153784610872565b808452938181169081156114dd575060011461155a5750610242925003826101b4565b600081815291507fb10e2d527612073b26eecdfd717e6a320cf44b4afac2b0732d9fcbe2b7fa0cf65b84831061159c5750610242935050810160200138611473565b81935090816020925483858901015201910190918492611583565b9081602091031261014357516102428161030d565b6040513d6000823e3d90fd5b60035490916001600160a01b0391600091839182168061167d575060045491925061165a91610448906001600160a01b0316955b6040516104408161164c6020820194859190602060408401937f2064f38e180b94f053ced20b3e46ad64ac4656e9697a6722232e4e3b24523bfd81520152565b03601f1981018352826101b4565b921691161460001461167157630b135d3f60e11b90565b6001600160e01b031990565b604051625110b560e71b81529250602090839060049082905afa92831561059757849361165a9361044892916116b5575b509561160c565b6116cd915060203d81116105905761058281836101b4565b386116ae565b610242916116e0916116e9565b909291926117c9565b815191906041830361171a5761171392506020820151906060604084015193015160001a90611725565b9192909190565b505060009160029190565b91907f7fffffffffffffffffffffffffffffff5d576e7357a4501ddfe92f46681b20a0841161179d57926020929160ff608095604051948552168484015260408301526060820152600092839182805260015afa156105975780516001600160a01b0381161561179457918190565b50809160019190565b50505060009160039190565b600411156117b357565b634e487b7160e01b600052602160045260246000fd5b6117d2816117a9565b806117db575050565b6117e4816117a9565b600181036117fe5760405163f645eedf60e01b8152600490fd5b611807816117a9565b600281036118285760405163fce698f760e01b815260048101839052602490fd5b806118346003926117a9565b1461183c5750565b6040516335e2f38360e21b81526004810191909152602490fd5b60429061186161187c565b906040519161190160f01b8352600283015260228201522090565b307f00000000000000000000000000000000000000000000000000000000000000006001600160a01b0316148061196d575b156118d7577f000000000000000000000000000000000000000000000000000000000000000090565b60405160208101907f8b73c3c69bb8fe3d512ecc4cf759cc79239f7b179b0ffacaa9a75d522b39400f82527f000000000000000000000000000000000000000000000000000000000000000060408201527f000000000000000000000000000000000000000000000000000000000000000060608201524660808201523060a082015260a0815261196781610199565b51902090565b507f000000000000000000000000000000000000000000000000000000000000000046146118ae565b601f81116119a2575050565b600090600582527f036b6384b5eca791c62761152d0c79bb0604c104a5fb6f4eb0703f3154bb3db0906020601f850160051c830194106119fd575b601f0160051c01915b8281106119f257505050565b8181556001016119e6565b90925082906119dd565b91906001600160401b03811161017957611a2b81611a26600554610872565b611996565b6000601f8211600114611a6557819293600092611a5a575b50508160011b916000199060031b1c191617600555565b013590503880611a43565b6005600052601f198216937f036b6384b5eca791c62761152d0c79bb0604c104a5fb6f4eb0703f3154bb3db091805b868110611acc5750836001959610611ab2575b505050811b01600555565b0135600019600384901b60f8161c19169055388080611aa7565b90926020600181928686013581550194019101611a94565b15611aeb57565b60405162461bcd60e51b815260206004820152600a6024820152696f6e6c7920656e74727960b01b6044820152606490fd5b60609194939260808201957f2064f38e180b94f053ced20b3e46ad64ac4656e9697a6722232e4e3b24523bfd835260018060a01b0316602083015260408201520152565b15611b6857565b60405162461bcd60e51b8152602060048201526011602482015270383934bb30ba32a4b733379032b93937b960791b6044820152606490fd5b600854604051638804eb9f60e01b81526001600160a01b03916020908290600490829086165afa90811561059757600091611c48575b5081600254169181168203611bea575050565b604080516001600160a01b039384168152928216602084015261032b927f2bb785f547c0cd9dd6e7647d00bfdc6e64884010271c104334389d3b62c55d209190a160018060a01b03166001600160601b0360a01b6002541617600255565b611c60915060203d81116105905761058281836101b4565b38611bd7565b15611c6d57565b60405162461bcd60e51b81526020600482015260156024820152740a8e4c2dce6cccae48ec2e640dcdee88adcdeeaced605b1b6044820152606490fd5b3d15611cd5573d90611cbb826101d5565b91611cc960405193846101b4565b82523d6000602084013e565b606090565b15611ce157565b60405162461bcd60e51b815260206004820152600f60248201526e1d1c985b9cd9995c91d85cd1985a5b608a1b6044820152606490fd5b634e487b7160e01b600052601160045260246000fd5b9063688b9300918203918211611d4057565b611d18565b91908203918211611d4057565b8115611d5c570490565b634e487b7160e01b600052601260045260246000fd5b906509184e72a00091828102928184041490151715611d4057565b81810292918115918404141715611d4057565b91908201809211611d4057565b600a548111611e2857611e15611e0d611e00611dfb84611dd5610ab061032b97600a54611d45565b6368640600421015611e2157611df6611ded42611d2e565b62278d00900490565b611d8d565b611d72565b3a611e1a57600190611d52565b600954611da0565b600955565b3a90611d52565b6001611d8d565b611e3481471015611c66565b600080808084611e4b60075460018060a01b031690565b5af1611e55611caa565b9015611e715750611e15611e0d611e00611dfb61032b94611dd5565b611e7d81511515611cda565b805190602001fd5b600354909291906001600160a01b03908116611f045760045460408051929091166001600160a01b0390811683528516602083015261032b946111849290917f86a654e36eea8a51afaa463e2c1bca2ebc738e4c12bec7f529d668689d409aa291a160018060a01b03166001600160601b0360a01b6004541617600455565b60405162461bcd60e51b81526020600482015260146024820152733173744163637443616e4368616e67654f6e6c7960601b6044820152606490fd5b908060209392818452848401376000828201840152601f01601f1916010190565b959493611f9392608094926003895260018060a01b03166020890152604088015260a0606088015260a0870191611f40565b930152565b908092918237016000815290565b15611fad57565b60405162461bcd60e51b815260206004820152601360248201527214d95b99151c985b9cd858dd1a5bdb91985a5b606a1b6044820152606490fd5b94939291604092611f939260018060a01b03168752606060208801526060870191611f40565b93919093844710612084576000806040518061202b818988611f98565b039088855af19461203a611caa565b9561204c5785611e7d81511515611fa6565b61207f907fa19f462005b3ffcf6982148b9ae1a62faa534f1e6fa3ac44c3a6ec9206513a0a949560405194859485611fe8565b0390a1565b60405162461bcd60e51b815260206004820152601860248201527f5472616e73666572416d6f756e74206e6f74456e6f75676800000000000000006044820152606490fd5b959493611f9392608094926004895260018060a01b03166020890152604088015260a0606088015260a0870191611f40565b1561210257565b60405162461bcd60e51b815260206004820152601860248201527f7472616e73666572416d6f756e74206e6f74456e6f75676800000000000000006044820152606490fd5b93919093612157854710156120fb565b60008060405180612169818988611f98565b039088855af194612178611caa565b9561218a5785611e7d81511515611fa6565b6121bd907fa19f462005b3ffcf6982148b9ae1a62faa534f1e6fa3ac44c3a6ec9206513a0a949560405194859485611fe8565b0390a1600460206121de6103e06103e06103e060085460018060a01b031690565b604051638804eb9f60e01b815292839182905afa9081156105975760009161221e575b506002546001600160a01b03908116919081168203611bea575050565b612236915060203d81116105905761058281836101b4565b38612201565b9082818152602080910193818360051b82010194846000925b858410612266575050505050505090565b90919293949596601f198282030184528735601e19843603018112156101435783018681019190356001600160401b038111610143578036038313610143576122b488928392600195611f40565b990194019401929594939190612255565b9796959190949260a089019160058a528060209360a0858d01525260c08a01969060005b81811061232e5750505088860360408a01528486526001600160fb1b03851161014357608095611f939560051b80928483013701818982030160608a0152019161223c565b90919784806001928b356123418161030d565b848060a01b0316815201990191019190916122e9565b919395909294969760405160209182820182612379868d8d8d8d8d8d896122c5565b039261238d601f19948581018352826101b4565b5190206003546001600160a01b039390600090851686816124e85750506004546001600160a01b03169050945b6007546123cf906001600160a01b03166103e0565b331415806124ca575b612410575b61240b9695936104486102429f8795610440610457999661044d966104346104246006546001810160065590565b61265e565b60049492969593816124326103e06103e06103e060085460018060a01b031690565b6040516317b617eb60e11b815297889182905afa958615610597576102429f61240b99610440879661044d9661248e6104579c6104489760009161056a575060018060a01b03166001600160601b0360a01b6007541617600755565b600754600080516020612791833981519152906124b3906001600160a01b0316610503565b0390a196509650509597509f5050939596506123dd565b506008546124e0906001600160a01b03166103e0565b3314156123d8565b604051625110b560e71b815291829060049082905afa9182156105975791612512575b50946123ba565b6125299150863d88116105905761058281836101b4565b3861250b565b90612539826113f1565b61254660405191826101b4565b8281528092612557601f19916113f1565b019060005b82811061256857505050565b80606060208093850101520161255c565b6000198114611d405760010190565b634e487b7160e01b600052603260045260246000fd5b91908110156125ae5760051b0190565b612588565b356102428161030d565b91908110156125ae5760051b81013590601e19813603018212156101435701908135916001600160401b038311610143576020018236038113610143579190565b80518210156125ae5760209160051b010190565b1561261957565b60405162461bcd60e51b815260206004820152601960248201527f73656e644d756c74695472616e73616374696f6e204661696c000000000000006044820152606490fd5b9293909461266b8661252f565b9460009182975b8089106126855750505050505050905090565b61269089828961259e565b612699906125b3565b9884806126a783878b61259e565b359b6126b484878b6125bd565b9d60409e8f51928380926126c792611f98565b03925af1996126d4611caa565b9a6126e6578a611e7d81511515612612565b87876127697fa19f462005b3ffcf6982148b9ae1a62faa534f1e6fa3ac44c3a6ec9206513a0a93888e9f8e9f8a9b9c9d9e9f898b9c61274f61274a836127719f61275596612744838a61275d9c61273e83809e6125fe565b526125fe565b5061259e565b6125b3565b986125bd565b93909761259e565b35915194859485611fe8565b0390a1612579565b9796959493929190612672565b6040516314fb703160e21b8152600490fdfe42360439848a4b7db7c8996f9162d89ba80e739842c1890e1b331b93a1b9bcdda264697066735822122058d30032172dcc69da51af52ad9edfe5b08af15c69166d9538b0e795924c9dba64736f6c63430008140033",
        "linkReferences": {}
    },
    "methodIdentifiers": {
        "DOMAIN_SEPARATOR()": "3644e515",
        "chgPasswdAddr(address,string,uint256,address,bytes)": "bf509515",
        "eip712Domain()": "84b0196e",
        "gasFreeAmount()": "eccb0f9f",
        "increaseGasFreeAmount(uint256)": "b62e9b26",
        "initByFactory(address,address,address,string,uint256)": "df646ff9",
        "initImpl(address)": "b5b0f1c7",
        "isValidSignature(bytes32,bytes)": "1626ba7e",
        "nonce()": "affed0e0",
        "passwdAddr()": "28885a80",
        "questionNos()": "952b5c93",
        "sendMultiTransaction(address[],uint256[],bytes[],uint256,address,bytes)": "8305cc43",
        "sendTransaction(address,uint256,bytes,uint256,address,bytes)": "f7677ec2",
        "standbyVariables(uint256)": "3195b8df",
        "upImplAfterSend(address,uint256,bytes,uint256,address,bytes)": "c9f86a7b",
        "upgradeImpl(uint256,address,bytes)": "4b28eac6",
        "w3eaPointAmount()": "11fc372d"
    },
    "id": 48
}